{
  "contractName": "PersonalDetails",
  "abi": [
    {
      "inputs": [
        {
          "internalType": "uint256",
          "name": "_age",
          "type": "uint256"
        },
        {
          "internalType": "uint256",
          "name": "_bloodPressure",
          "type": "uint256"
        },
        {
          "internalType": "uint256",
          "name": "_sex",
          "type": "uint256"
        },
        {
          "internalType": "uint256",
          "name": "_cp",
          "type": "uint256"
        },
        {
          "internalType": "uint256",
          "name": "_thalach",
          "type": "uint256"
        },
        {
          "internalType": "uint256",
          "name": "_oldpeak",
          "type": "uint256"
        }
      ],
      "name": "setRecord",
      "outputs": [],
      "stateMutability": "nonpayable",
      "type": "function"
    },
    {
      "inputs": [],
      "name": "getRecord",
      "outputs": [
        {
          "internalType": "uint256",
          "name": "",
          "type": "uint256"
        },
        {
          "internalType": "uint256",
          "name": "",
          "type": "uint256"
        },
        {
          "internalType": "uint256",
          "name": "",
          "type": "uint256"
        },
        {
          "internalType": "uint256",
          "name": "",
          "type": "uint256"
        },
        {
          "internalType": "uint256",
          "name": "",
          "type": "uint256"
        },
        {
          "internalType": "uint256",
          "name": "",
          "type": "uint256"
        }
      ],
      "stateMutability": "view",
      "type": "function",
      "constant": true
    },
    {
      "inputs": [],
      "name": "deleteRecord",
      "outputs": [],
      "stateMutability": "nonpayable",
      "type": "function"
    },
    {
      "inputs": [],
      "name": "recordExists",
      "outputs": [
        {
          "internalType": "bool",
          "name": "",
          "type": "bool"
        }
      ],
      "stateMutability": "view",
      "type": "function",
      "constant": true
    }
  ],
  "bytecode": "0x608060405234801561001057600080fd5b50610869806100206000396000f3fe608060405234801561001057600080fd5b506004361061004c5760003560e01c806365426a9814610051578063e7ffa52c1461005b578063f0f23cfb14610077578063f18ad6fb14610095575b600080fd5b6100596100b8565b005b6100756004803603810190610070919061055f565b61020f565b005b61007f6103a5565b60405161008c9190610673565b60405180910390f35b61009d6103f9565b6040516100af969594939291906106ee565b60405180910390f35b600160003373ffffffffffffffffffffffffffffffffffffffff1673ffffffffffffffffffffffffffffffffffffffff16815260200190815260200160002060009054906101000a900460ff16610144576040517f08c379a000000000000000000000000000000000000000000000000000000000815260040161013b906106ae565b60405180910390fd5b6000803373ffffffffffffffffffffffffffffffffffffffff1673ffffffffffffffffffffffffffffffffffffffff1681526020019081526020016000206000808201600090556001820160009055600282016000905560038201600090556004820160009055600582016000905550506000600160003373ffffffffffffffffffffffffffffffffffffffff1673ffffffffffffffffffffffffffffffffffffffff16815260200190815260200160002060006101000a81548160ff021916908315150217905550565b600160003373ffffffffffffffffffffffffffffffffffffffff1673ffffffffffffffffffffffffffffffffffffffff16815260200190815260200160002060009054906101000a900460ff161561029c576040517f08c379a0000000000000000000000000000000000000000000000000000000008152600401610293906106ce565b60405180910390fd5b6040518060c00160405280878152602001868152602001858152602001848152602001838152602001828152506000803373ffffffffffffffffffffffffffffffffffffffff1673ffffffffffffffffffffffffffffffffffffffff168152602001908152602001600020600082015181600001556020820151816001015560408201518160020155606082015181600301556080820151816004015560a0820151816005015590505060018060003373ffffffffffffffffffffffffffffffffffffffff1673ffffffffffffffffffffffffffffffffffffffff16815260200190815260200160002060006101000a81548160ff021916908315150217905550505050505050565b6000600160003373ffffffffffffffffffffffffffffffffffffffff1673ffffffffffffffffffffffffffffffffffffffff16815260200190815260200160002060009054906101000a900460ff16905090565b600080600080600080600160003373ffffffffffffffffffffffffffffffffffffffff1673ffffffffffffffffffffffffffffffffffffffff16815260200190815260200160002060009054906101000a900460ff1661048e576040517f08c379a00000000000000000000000000000000000000000000000000000000081526004016104859061068e565b60405180910390fd5b60008060003373ffffffffffffffffffffffffffffffffffffffff1673ffffffffffffffffffffffffffffffffffffffff1681526020019081526020016000206040518060c001604052908160008201548152602001600182015481526020016002820154815260200160038201548152602001600482015481526020016005820154815250509050806000015181602001518260400151836060015184608001518560a0015196509650965096509650965050909192939495565b6000813590506105598161081c565b92915050565b60008060008060008060c0878903121561057c5761057b610776565b5b600061058a89828a0161054a565b965050602061059b89828a0161054a565b95505060406105ac89828a0161054a565b94505060606105bd89828a0161054a565b93505060806105ce89828a0161054a565b92505060a06105df89828a0161054a565b9150509295509295509295565b6105f581610760565b82525050565b600061060860208361074f565b91506106138261077b565b602082019050919050565b600061062b60198361074f565b9150610636826107a4565b602082019050919050565b600061064e60268361074f565b9150610659826107cd565b604082019050919050565b61066d8161076c565b82525050565b600060208201905061068860008301846105ec565b92915050565b600060208201905081810360008301526106a7816105fb565b9050919050565b600060208201905081810360008301526106c78161061e565b9050919050565b600060208201905081810360008301526106e781610641565b9050919050565b600060c0820190506107036000830189610664565b6107106020830188610664565b61071d6040830187610664565b61072a6060830186610664565b6107376080830185610664565b61074460a0830184610664565b979650505050505050565b600082825260208201905092915050565b60008115159050919050565b6000819050919050565b600080fd5b7f4e6f207265636f726420666f756e6420666f722074686973206163636f756e74600082015250565b7f4e6f207265636f726420666f756e6420746f2064656c65746500000000000000600082015250565b7f5265636f726420616c72656164792065786973747320666f722074686973206160008201527f63636f756e740000000000000000000000000000000000000000000000000000602082015250565b6108258161076c565b811461083057600080fd5b5056fea2646970667358221220bc3772e1a2fcdcc1129d52e89ae95383cd49424d8d927070df8abedda287d57164736f6c63430008060033",
  "immutableReferences": {},
  "source": "// SPDX-License-Identifier: MIT\r\npragma solidity ^0.8.6;\r\n\r\ncontract PersonalDetails {\r\n    struct Record {\r\n        uint256 age; // No scaling needed\r\n        uint256 bloodPressure; // Scaled by 100\r\n        uint256 sex; // No scaling needed\r\n        uint256 cp; // Scaled by 100\r\n        uint256 thalach; // Scaled by 100\r\n        uint256 oldpeak; // Scaled by 100\r\n    }\r\n\r\n    mapping(address => Record) private records;\r\n    mapping(address => bool) private hasRecord; // Track if an account has stored data\r\n\r\n    // Save record with scaled values\r\n    function setRecord(\r\n        uint256 _age,\r\n        uint256 _bloodPressure, // Multiply float by 100 before passing\r\n        uint256 _sex,\r\n        uint256 _cp, // Multiply float by 100 before passing\r\n        uint256 _thalach, // Multiply float by 100 before passing\r\n        uint256 _oldpeak // Multiply float by 100 before passing\r\n    ) public {\r\n        require(!hasRecord[msg.sender], \"Record already exists for this account\"); // Check if the account has already stored data\r\n\r\n        records[msg.sender] = Record(_age, _bloodPressure, _sex, _cp, _thalach, _oldpeak);\r\n        hasRecord[msg.sender] = true; // Mark the account as having stored data\r\n    }\r\n\r\n    // Fetch the record (returns scaled values)\r\n    function getRecord() public view returns (uint256, uint256, uint256, uint256, uint256, uint256) {\r\n        require(hasRecord[msg.sender], \"No record found for this account\");\r\n        Record memory record = records[msg.sender];\r\n        return (\r\n            record.age,\r\n            record.bloodPressure, // Divide by 100 on the frontend to get the float value\r\n            record.sex,\r\n            record.cp, // Divide by 100 on the frontend to get the float value\r\n            record.thalach, // Divide by 100 on the frontend to get the float value\r\n            record.oldpeak // Divide by 100 on the frontend to get the float value\r\n        );\r\n    }\r\n\r\n    // Delete record\r\n    function deleteRecord() public {\r\n        require(hasRecord[msg.sender], \"No record found to delete\");\r\n        delete records[msg.sender];\r\n        hasRecord[msg.sender] = false; // Reset the record status\r\n    }\r\n\r\n    // Check if record exists\r\n    function recordExists() public view returns (bool) {\r\n        return hasRecord[msg.sender];\r\n    }\r\n}\r\n",
  "sourcePath": "D:\\S\\contracts\\PersonalDetails.sol",
  "compiler": {
    "name": "solc",
    "version": "0.8.6+commit.11564f7e.Emscripten.clang"
  },
  "schemaVersion": "3.4.16",
  "updatedAt": "2025-01-04T06:25:26.415Z",
  "networkType": "ethereum",
  "devdoc": {
    "kind": "dev",
    "methods": {},
    "version": 1
  },
  "userdoc": {
    "kind": "user",
    "methods": {},
    "version": 1
  }
}