{
  "contractName": "PersonalDetails",
  "abi": [
    {
      "anonymous": false,
      "inputs": [
        {
          "indexed": true,
          "internalType": "address",
          "name": "personAddress",
          "type": "address"
        },
        {
          "indexed": false,
          "internalType": "string",
          "name": "name",
          "type": "string"
        },
        {
          "indexed": false,
          "internalType": "uint256",
          "name": "age",
          "type": "uint256"
        },
        {
          "indexed": false,
          "internalType": "string",
          "name": "addressInfo",
          "type": "string"
        },
        {
          "indexed": false,
          "internalType": "string",
          "name": "email",
          "type": "string"
        }
      ],
      "name": "PersonAdded",
      "type": "event"
    },
    {
      "anonymous": false,
      "inputs": [
        {
          "indexed": true,
          "internalType": "address",
          "name": "personAddress",
          "type": "address"
        }
      ],
      "name": "PersonDeleted",
      "type": "event"
    },
    {
      "anonymous": false,
      "inputs": [
        {
          "indexed": true,
          "internalType": "address",
          "name": "personAddress",
          "type": "address"
        },
        {
          "indexed": false,
          "internalType": "string",
          "name": "name",
          "type": "string"
        },
        {
          "indexed": false,
          "internalType": "uint256",
          "name": "age",
          "type": "uint256"
        },
        {
          "indexed": false,
          "internalType": "string",
          "name": "addressInfo",
          "type": "string"
        },
        {
          "indexed": false,
          "internalType": "string",
          "name": "email",
          "type": "string"
        }
      ],
      "name": "PersonUpdated",
      "type": "event"
    },
    {
      "inputs": [
        {
          "internalType": "string",
          "name": "_name",
          "type": "string"
        },
        {
          "internalType": "uint256",
          "name": "_age",
          "type": "uint256"
        },
        {
          "internalType": "string",
          "name": "_addressInfo",
          "type": "string"
        },
        {
          "internalType": "string",
          "name": "_email",
          "type": "string"
        }
      ],
      "name": "addOrUpdatePerson",
      "outputs": [],
      "stateMutability": "nonpayable",
      "type": "function"
    },
    {
      "inputs": [],
      "name": "deletePerson",
      "outputs": [],
      "stateMutability": "nonpayable",
      "type": "function"
    },
    {
      "inputs": [
        {
          "internalType": "address",
          "name": "_personAddress",
          "type": "address"
        }
      ],
      "name": "getPerson",
      "outputs": [
        {
          "internalType": "string",
          "name": "",
          "type": "string"
        },
        {
          "internalType": "uint256",
          "name": "",
          "type": "uint256"
        },
        {
          "internalType": "string",
          "name": "",
          "type": "string"
        },
        {
          "internalType": "string",
          "name": "",
          "type": "string"
        }
      ],
      "stateMutability": "view",
      "type": "function",
      "constant": true
    }
  ],
  "bytecode": "0x608060405234801561001057600080fd5b506109f3806100206000396000f3fe608060405234801561001057600080fd5b50600436106100415760003560e01c806326fd51a814610046578063552d2d5c14610050578063ae99089b14610083575b600080fd5b61004e61009f565b005b61006a6004803603810190610065919061062f565b61015d565b60405161007a949392919061075f565b60405180910390f35b61009d6004803603810190610098919061065c565b610395565b005b6000803373ffffffffffffffffffffffffffffffffffffffff1673ffffffffffffffffffffffffffffffffffffffff168152602001908152602001600020600080820160006100ee91906104b2565b600182016000905560028201600061010691906104b2565b60038201600061011691906104b2565b50503373ffffffffffffffffffffffffffffffffffffffff167fbba234eabce64dec4bb18a3292d528d2422f4486bf187ed40078213ac7919b8e60405160405180910390a2565b6060600060608060008060008773ffffffffffffffffffffffffffffffffffffffff1673ffffffffffffffffffffffffffffffffffffffff1681526020019081526020016000206040518060800160405290816000820180546101bf906108a9565b80601f01602080910402602001604051908101604052809291908181526020018280546101eb906108a9565b80156102385780601f1061020d57610100808354040283529160200191610238565b820191906000526020600020905b81548152906001019060200180831161021b57829003601f168201915b505050505081526020016001820154815260200160028201805461025b906108a9565b80601f0160208091040260200160405190810160405280929190818152602001828054610287906108a9565b80156102d45780601f106102a9576101008083540402835291602001916102d4565b820191906000526020600020905b8154815290600101906020018083116102b757829003601f168201915b505050505081526020016003820180546102ed906108a9565b80601f0160208091040260200160405190810160405280929190818152602001828054610319906108a9565b80156103665780601f1061033b57610100808354040283529160200191610366565b820191906000526020600020905b81548152906001019060200180831161034957829003601f168201915b505050505081525050905080600001518160200151826040015183606001519450945094509450509193509193565b6040518060800160405280858152602001848152602001838152602001828152506000803373ffffffffffffffffffffffffffffffffffffffff1673ffffffffffffffffffffffffffffffffffffffff16815260200190815260200160002060008201518160000190805190602001906104109291906104f2565b506020820151816001015560408201518160020190805190602001906104379291906104f2565b5060608201518160030190805190602001906104549291906104f2565b509050503373ffffffffffffffffffffffffffffffffffffffff167fffcaf92b35b6c6e97d8a5108247f2a5e05004978bcac34d1a7b6e5dad17a7c00858585856040516104a4949392919061075f565b60405180910390a250505050565b5080546104be906108a9565b6000825580601f106104d057506104ef565b601f0160209004906000526020600020908101906104ee9190610578565b5b50565b8280546104fe906108a9565b90600052602060002090601f0160209004810192826105205760008555610567565b82601f1061053957805160ff1916838001178555610567565b82800160010185558215610567579182015b8281111561056657825182559160200191906001019061054b565b5b5090506105749190610578565b5090565b5b80821115610591576000816000905550600101610579565b5090565b60006105a86105a3846107de565b6107b9565b9050828152602081018484840111156105c4576105c361096f565b5b6105cf848285610867565b509392505050565b6000813590506105e68161098f565b92915050565b600082601f8301126106015761060061096a565b5b8135610611848260208601610595565b91505092915050565b600081359050610629816109a6565b92915050565b60006020828403121561064557610644610979565b5b6000610653848285016105d7565b91505092915050565b6000806000806080858703121561067657610675610979565b5b600085013567ffffffffffffffff81111561069457610693610974565b5b6106a0878288016105ec565b94505060206106b18782880161061a565b935050604085013567ffffffffffffffff8111156106d2576106d1610974565b5b6106de878288016105ec565b925050606085013567ffffffffffffffff8111156106ff576106fe610974565b5b61070b878288016105ec565b91505092959194509250565b60006107228261080f565b61072c818561081a565b935061073c818560208601610876565b6107458161097e565b840191505092915050565b6107598161085d565b82525050565b600060808201905081810360008301526107798187610717565b90506107886020830186610750565b818103604083015261079a8185610717565b905081810360608301526107ae8184610717565b905095945050505050565b60006107c36107d4565b90506107cf82826108db565b919050565b6000604051905090565b600067ffffffffffffffff8211156107f9576107f861093b565b5b6108028261097e565b9050602081019050919050565b600081519050919050565b600082825260208201905092915050565b60006108368261083d565b9050919050565b600073ffffffffffffffffffffffffffffffffffffffff82169050919050565b6000819050919050565b82818337600083830152505050565b60005b83811015610894578082015181840152602081019050610879565b838111156108a3576000848401525b50505050565b600060028204905060018216806108c157607f821691505b602082108114156108d5576108d461090c565b5b50919050565b6108e48261097e565b810181811067ffffffffffffffff821117156109035761090261093b565b5b80604052505050565b7f4e487b7100000000000000000000000000000000000000000000000000000000600052602260045260246000fd5b7f4e487b7100000000000000000000000000000000000000000000000000000000600052604160045260246000fd5b600080fd5b600080fd5b600080fd5b600080fd5b6000601f19601f8301169050919050565b6109988161082b565b81146109a357600080fd5b50565b6109af8161085d565b81146109ba57600080fd5b5056fea2646970667358221220d30ab9fbc7b2c9eca1cbf96671709549e95dfd2475b2cc42484f5de10649abfd64736f6c63430008060033",
  "immutableReferences": {},
  "source": "// SPDX-License-Identifier: MIT\r\npragma solidity ^0.8.6;\r\n\r\ncontract PersonalDetails {\r\n    struct Person {\r\n        string name;\r\n        uint age;\r\n        string addressInfo;\r\n        string email;\r\n    }\r\n\r\n    mapping(address => Person) private people;\r\n\r\n    // Event to emit when a person is added, updated, or deleted\r\n    event PersonAdded(address indexed personAddress, string name, uint age, string addressInfo, string email);\r\n    event PersonUpdated(address indexed personAddress, string name, uint age, string addressInfo, string email);\r\n    event PersonDeleted(address indexed personAddress);\r\n\r\n    // Function to add or update personal details\r\n    function addOrUpdatePerson(string memory _name, uint _age, string memory _addressInfo, string memory _email) public {\r\n        people[msg.sender] = Person(_name, _age, _addressInfo, _email);\r\n        emit PersonAdded(msg.sender, _name, _age, _addressInfo, _email);\r\n    }\r\n\r\n    // Function to delete personal details\r\n    function deletePerson() public {\r\n        delete people[msg.sender];\r\n        emit PersonDeleted(msg.sender);\r\n    }\r\n\r\n    // Function to retrieve personal details\r\n    function getPerson(address _personAddress) public view returns (string memory, uint, string memory, string memory) {\r\n        Person memory person = people[_personAddress];\r\n        return (person.name, person.age, person.addressInfo, person.email);\r\n    }\r\n}\r\n",
  "sourcePath": "D:\\Signin\\contracts\\PersonalDetails.sol",
  "compiler": {
    "name": "solc",
    "version": "0.8.6+commit.11564f7e.Emscripten.clang"
  },
  "schemaVersion": "3.4.16",
  "updatedAt": "2024-09-10T16:48:04.819Z",
  "networkType": "ethereum",
  "devdoc": {
    "kind": "dev",
    "methods": {},
    "version": 1
  },
  "userdoc": {
    "kind": "user",
    "methods": {},
    "version": 1
  }
}