{
  "contractName": "PersonalDetails",
  "abi": [
    {
      "anonymous": false,
      "inputs": [
        {
          "indexed": true,
          "internalType": "address",
          "name": "user",
          "type": "address"
        },
        {
          "indexed": false,
          "internalType": "uint256",
          "name": "age",
          "type": "uint256"
        },
        {
          "indexed": false,
          "internalType": "uint256",
          "name": "bloodPressure",
          "type": "uint256"
        },
        {
          "indexed": false,
          "internalType": "uint256",
          "name": "sex",
          "type": "uint256"
        },
        {
          "indexed": false,
          "internalType": "uint256",
          "name": "cp",
          "type": "uint256"
        },
        {
          "indexed": false,
          "internalType": "uint256",
          "name": "thalach",
          "type": "uint256"
        },
        {
          "indexed": false,
          "internalType": "uint256",
          "name": "oldpeak",
          "type": "uint256"
        }
      ],
      "name": "RecordUpdated",
      "type": "event"
    },
    {
      "inputs": [
        {
          "internalType": "uint256",
          "name": "_age",
          "type": "uint256"
        },
        {
          "internalType": "uint256",
          "name": "_bloodPressure",
          "type": "uint256"
        },
        {
          "internalType": "uint256",
          "name": "_sex",
          "type": "uint256"
        },
        {
          "internalType": "uint256",
          "name": "_cp",
          "type": "uint256"
        },
        {
          "internalType": "uint256",
          "name": "_thalach",
          "type": "uint256"
        },
        {
          "internalType": "uint256",
          "name": "_oldpeak",
          "type": "uint256"
        }
      ],
      "name": "setRecord",
      "outputs": [],
      "stateMutability": "nonpayable",
      "type": "function"
    },
    {
      "inputs": [],
      "name": "getRecord",
      "outputs": [
        {
          "internalType": "uint256",
          "name": "",
          "type": "uint256"
        },
        {
          "internalType": "uint256",
          "name": "",
          "type": "uint256"
        },
        {
          "internalType": "uint256",
          "name": "",
          "type": "uint256"
        },
        {
          "internalType": "uint256",
          "name": "",
          "type": "uint256"
        },
        {
          "internalType": "uint256",
          "name": "",
          "type": "uint256"
        },
        {
          "internalType": "uint256",
          "name": "",
          "type": "uint256"
        }
      ],
      "stateMutability": "view",
      "type": "function",
      "constant": true
    },
    {
      "inputs": [],
      "name": "deleteRecord",
      "outputs": [],
      "stateMutability": "nonpayable",
      "type": "function"
    }
  ],
  "bytecode": "0x608060405234801561001057600080fd5b506105ce806100206000396000f3fe608060405234801561001057600080fd5b50600436106100415760003560e01c806365426a9814610046578063e7ffa52c14610050578063f18ad6fb1461006c575b600080fd5b61004e61008f565b005b61006a600480360381019061006591906103f8565b6101a4565b005b6100746102d7565b604051610086969594939291906104d7565b60405180910390f35b6000803373ffffffffffffffffffffffffffffffffffffffff1673ffffffffffffffffffffffffffffffffffffffff16815260200190815260200160002060060160009054906101000a900460ff1661011d576040517f08c379a0000000000000000000000000000000000000000000000000000000008152600401610114906104b7565b60405180910390fd5b6000803373ffffffffffffffffffffffffffffffffffffffff1673ffffffffffffffffffffffffffffffffffffffff168152602001908152602001600020600080820160009055600182016000905560028201600090556003820160009055600482016000905560058201600090556006820160006101000a81549060ff02191690555050565b6040518060e00160405280878152602001868152602001858152602001848152602001838152602001828152602001600115158152506000803373ffffffffffffffffffffffffffffffffffffffff1673ffffffffffffffffffffffffffffffffffffffff168152602001908152602001600020600082015181600001556020820151816001015560408201518160020155606082015181600301556080820151816004015560a0820151816005015560c08201518160060160006101000a81548160ff0219169083151502179055509050503373ffffffffffffffffffffffffffffffffffffffff167f0da2891c65f40ec6c5ef82c92bb7ce38a7c9c46b191266b7a0665f4e1cbb40ec8787878787876040516102c7969594939291906104d7565b60405180910390a2505050505050565b6000806000806000806000803373ffffffffffffffffffffffffffffffffffffffff1673ffffffffffffffffffffffffffffffffffffffff16815260200190815260200160002060060160009054906101000a900460ff1661036e576040517f08c379a0000000000000000000000000000000000000000000000000000000008152600401610365906104b7565b60405180910390fd5b60008060003373ffffffffffffffffffffffffffffffffffffffff1673ffffffffffffffffffffffffffffffffffffffff168152602001908152602001600020905080600001548160010154826002015483600301548460040154856005015496509650965096509650965050909192939495565b6000813590506103f281610581565b92915050565b60008060008060008060c0878903121561041557610414610553565b5b600061042389828a016103e3565b965050602061043489828a016103e3565b955050604061044589828a016103e3565b945050606061045689828a016103e3565b935050608061046789828a016103e3565b92505060a061047889828a016103e3565b9150509295509295509295565b6000610492601583610538565b915061049d82610558565b602082019050919050565b6104b181610549565b82525050565b600060208201905081810360008301526104d081610485565b9050919050565b600060c0820190506104ec60008301896104a8565b6104f960208301886104a8565b61050660408301876104a8565b61051360608301866104a8565b61052060808301856104a8565b61052d60a08301846104a8565b979650505050505050565b600082825260208201905092915050565b6000819050919050565b600080fd5b7f5265636f726420646f6573206e6f742065786973740000000000000000000000600082015250565b61058a81610549565b811461059557600080fd5b5056fea2646970667358221220b09b95f2202e9627280b4e5a802a32fc07925aad2decaee07ac015602639d2f564736f6c63430008060033",
  "immutableReferences": {},
  "source": "// SPDX-License-Identifier: MIT\r\n\r\npragma solidity 0.8.6;\r\n\r\ncontract PersonalDetails {\r\n    struct HealthRecord {\r\n        uint age;\r\n        uint bloodPressure;\r\n        uint sex;\r\n        uint cp;\r\n        uint thalach;\r\n        uint oldpeak;\r\n        bool exists; // Marker to check if the record exists\r\n    }\r\n\r\n    mapping(address => HealthRecord) private records;\r\n\r\n    // Event for logging purposes\r\n    event RecordUpdated(address indexed user, uint age, uint bloodPressure, uint sex, uint cp, uint thalach, uint oldpeak);\r\n\r\n    // Create or Update\r\n    function setRecord(uint _age, uint _bloodPressure, uint _sex, uint _cp, uint _thalach, uint _oldpeak) public {\r\n        records[msg.sender] = HealthRecord(_age, _bloodPressure, _sex, _cp, _thalach, _oldpeak, true);\r\n        emit RecordUpdated(msg.sender, _age, _bloodPressure, _sex, _cp, _thalach, _oldpeak);\r\n    }\r\n\r\n    // Read\r\n    function getRecord() public view returns (uint, uint, uint, uint, uint, uint) {\r\n        require(records[msg.sender].exists, \"Record does not exist\");\r\n        HealthRecord storage record = records[msg.sender];\r\n        return (record.age, record.bloodPressure, record.sex, record.cp, record.thalach, record.oldpeak);\r\n    }\r\n\r\n    // Delete\r\n    function deleteRecord() public {\r\n        require(records[msg.sender].exists, \"Record does not exist\");\r\n        delete records[msg.sender];\r\n    }\r\n}\r\n",
  "sourcePath": "D:\\SignIn\\contracts\\PersonalDetails.sol",
  "compiler": {
    "name": "solc",
    "version": "0.8.6+commit.11564f7e.Emscripten.clang"
  },
  "schemaVersion": "3.4.16",
  "updatedAt": "2024-12-11T12:31:48.556Z",
  "networkType": "ethereum",
  "devdoc": {
    "kind": "dev",
    "methods": {},
    "version": 1
  },
  "userdoc": {
    "kind": "user",
    "methods": {},
    "version": 1
  }
}